:020000040800F2
:10000000004D0020650200083F120008A7110008FB
:100010003D12000801040008091500080000000056
:10002000000000000000000000000000CD010008FA
:10003000030400080000000011020008411200083B
:100040007F0200087F0200087F0200087F0200088C
:100050007F0200087F0200087F0200087F0200087C
:100060007F0200087F0200087F0200087F0200086C
:100070007F0200087F0200087F0200087F0200085C
:100080007F0200087F0200087F0200087F0200084C
:100090007F0200087F0200087F0200087F0200083C
:1000A0007F0200087F0200087F0200087F0200082C
:1000B0007F0200087F0200087F0200087F0200081C
:1000C0007F0200087F0200087F0200087F0200080C
:1000D0007F020008DD1400087F0200087F0200088C
:1000E0007F0200087F0200087F0200087F020008EC
:1000F0007F0200087F0200087F0200087F020008DC
:100100007F0200087F0200087F0200087F020008CB
:100110007F0200087F0200087F0200087F020008BB
:100120007F0200087F0200087F0200087F020008AB
:1001300000F002F800F03AF80AA090E8000C8244BF
:100140008344AAF10107DA4501D100F02FF8AFF29C
:10015000090EBAE80F0013F0010F18BFFB1A43F0A5
:10016000010318479C1D0000BC1D0000103A24BF6D
:1001700078C878C1FAD8520724BF30C830C144BF0C
:1001800004680C607047000000230024002500264E
:10019000103A28BF78C1FBD8520728BF30C148BFEA
:1001A0000B6070471FB51FBD10B510BD00F0E2F821
:1001B0001146FFF7F7FF01F0CFF900F014F903B48F
:1001C000FFF7F2FF03BC01F0B0F90000224B196801
:1001D0000868B0E8F00F80F30988BFF36F8F4FF025
:1001E000000080F311884EF00D0E704700000000F3
:1001F00006480068006880F3088862B661B6BFF3FD
:100200004F8FBFF36F8F00DF00BF00BF08ED00E02E
:10021000EFF30980BFF36F8F0F4B1A6820E9F00FDF
:10022000106008B54FF0BF0080F31188BFF34F8F07
:10023000BFF36F8F01F0C8FC4FF0000080F311880E
:10024000BDE8084019680868B0E8F00F80F3098835
:10025000BFF36F8F704700BF20000020EFF30580D1
:10026000704700000948804709480047FEE7FEE75D
:10027000FEE7FEE7FEE7FEE7FEE7FEE7FEE7FEE756
:1002800004480549054A064B70470000CB12000898
:100290003101000800470020004D002000490020E7
:1002A00000490020704700000FB4044910B503AAAC
:1002B000029800F031F810BC5DF814FB0C0000202F
:1002C0004FF0000200B5134694469646203922BFEF
:1002D000A0E80C50A0E80C50B1F12001BFF4F7AF3A
:1002E000090728BFA0E80C5048BF0CC05DF804EB1C
:1002F000890028BF40F8042B08BF704748BF20F88A
:10030000022B11F0804F18BF00F8012B7047704787
:100310007047704770470000074B70B50D467B442F
:1003200000F011F80446284600F020F810B14FF014
:10033000FF3070BD204670BD1F12000001694A1CCD
:1003400002610878704700B58FB0CDE90131002116
:10035000059105497944CDE903101146684600F03E
:100360002EF80FB000BD0000E5FFFFFF007B00F09E
:1003700080007047754600F03FF8AE4605006946BC
:10038000534620F00700854618B020B5FFF778FFE8
:10039000BDE820404FF000064FF000074FF0000886
:1003A0004FF0000B21F00701AC46ACE8C009ACE807
:1003B000C009ACE8C009ACE8C0098D4670472DE91A
:1003C000F04106460024D6E90170F56880463046C3
:1003D00003E04146B847641C3046A8470028F8D1DE
:1003E0002046BDE8F08110B50446AFF300802046FA
:1003F000BDE81040FFF7E3BE00487047A04600206C
:10040000FEE7704710B590F821100022022905D0B0
:100410000421816380F82020012010BD01680B6851
:1004200023F00E030B6001680B6823F001030B60DF
:1004300090F84030C46B012101FA03F3636080F847
:10044000211080F82020104610BD00002DE9F05F3B
:1004500090F821100024022903D004218163012493
:1004600085E001680A6822F00E020A6001680A68E5
:1004700022F001020A603F4E3E4FB215DFF8F4C091
:10048000DFF8F090DFF8ECA0DFF8E8B0DFF8E4E0A8
:100490000168783F13011502ACF1640CA9F1500911
:1004A000AAF13C0AABF1280BAEF1140E4FF4801800
:1004B000B14227D9B9420ED0614512D049451DD06D
:1004C000514518D0594518D0714501D1424615E023
:1004D000294EB14201D1012210E0274E1436B1421B
:1004E00001D110220AE0244E2836B14206D0224A19
:1004F0003C32914201D11A4600E02A461E49091FAA
:100500000A602BE0B94213D0614517D0494522D08B
:1005100051451DD059451DD0714501D142461AE0C3
:10052000B14202D14FF0807215E0134EB14201D1B9
:10053000012210E0104E1436B14201D110220AE01F
:100540000D4E2836B14206D00B4A3C32914201D1C1
:100550001A4600E02A46074980394A60012180F89E
:100560002110002180F82010416B01B188472046FE
:10057000BDE8F09F80000240080402402DE9F84FDA
:10058000DFF8C8910024A9F1040B23460F2709F1D5
:10059000040AABF1040ED1E00125A54006EA0502EC
:1005A000AA4276D1DFF8A8C14E68A6EB0C086645D2
:1005B0002BD00DDC032E34D005DC36B3012E19D040
:1005C000022E2FD11BE0112E16D0122E2AD119E0A7
:1005D000B8F5881F19D006DCB8F5803F15D0B8F5FE
:1005E000801F1FD111E0B8F5001F0ED0B8F5041F11
:1005F00018D10AE0CB6815E0CB681B1D12E0CB6870
:1006000008330FE0CB680C330CE08B682BB1012B67
:100610004FF0080303D0456104E0042302E00561C4
:1006200000E00023FF2A01D8064601E000F104069D
:100630004FEA840501D9A5F12005D6F8008007FA14
:1006400005FC28EA0C0803FA05F548EA0508C6F88F
:1006500000804D68ED0070D53E4DAE6946F0010654
:10066000AE61AD6924F0030605F0010500953A4D31
:1006700006EB050CDCF80850A607360F07FA06F85B
:1006800025EA0805DFF8D480404503D14FF0000883
:1006900025E052E0DFF8C880404502D14FF0010864
:1006A0001DE0DFF8C080404502D14FF0020816E09F
:1006B000DFF8B480404502D14FF003080FE0DFF8C7
:1006C000AC80404502D14FF0040808E0DFF8A0807C
:1006D000404502D14FF0050801E04FF0060808FA46
:1006E00006F848EA0508CCF808804D68D9F800609B
:1006F000ED024D4601D5164300E096432E604D684D
:10070000DAF80060AD02554601D5164300E0964385
:100710002E604D68DBF80060AD035D4601D51643E1
:1007200000E096432E604D68DEF80060ED037546EC
:1007300001D5164300E096432E60641C0A681646F5
:10074000E2407FF429AFBDE8F88F000008040140C3
:10075000000011100010024000000140000801409C
:10076000000C01400010014000140140001801403D
:10077000001C01400AB1016170470904FBE7000059
:10078000014880687047000010000020074810B53D
:10079000016841F010010160032000F075F80020AD
:1007A00000F006F800F024F8002010BD0020024000
:1007B00070B50D4D04464FF47A712878B1FBF0F016
:1007C0000A490968B1FBF0F000F0E8FA48B9102CCA
:1007D00007D200222146501E00F036F800206C603F
:1007E00070BD012070BD0000100000201C00002022
:1007F0000C4808B5816941F001018161816901F00E
:1008000001010091C16941F08051C161C06900F0EE
:10081000805000900448416821F0E06141F000718F
:10082000416008BD0010024000000140002809DBC3
:1008300000F01F02012191404009800000F1E020FA
:10084000C0F8001170470000F0B40E4B1B680C4656
:10085000C3F30223C3F10705042D00D90425191D94
:10086000072901D2002300E0DB1E012606FA05F16C
:10087000491E214099409E40761E16403143F0BCEF
:1008800000F043BE0CED00E0064900F007020868E6
:100890004FF6FF03184040EA0220034A1043086065
:1008A000704700000CED00E00000FA052DE9F0476C
:1008B0000F46050061D0434E306800F00700B84293
:1008C00009D2306820F0070038433060306800F00B
:1008D0000700B84251D128683B4C810712D5400728
:1008E00003D5606840F4E06060602878000703D5B5
:1008F000606840F4605060606068A96820F0F000B3
:10090000084360602878C00728D06868012810D0A4
:100910002168022810D0890700292EDA616821F0A9
:10092000030101436160FFF72BFF804641F28839E4
:100930000DE021688903EFE78901EDE7FFF720FF6C
:10094000A0EB0801494502D90320BDE8F0876068A3
:10095000696800F00C00B0EB810FEFD1306800F057
:100960000700B8420BD9306820F0070038433060E8
:10097000306800F00700B84201D00120E5E7287890
:10098000400705D56068E96820F4E06008436060CE
:100990002878000706D56068296920F4605040EA8D
:1009A000C100606000F038F86168084AC1F30311C3
:1009B000515CC8400649086006480068FFF7F8FE29
:1009C0000020C2E70020024000100240E61E00089E
:1009D0001C000020140000200448054900684968F4
:1009E000044AC1F30221515CC84070471C0000203A
:1009F00000100240F61E00080448054900684968D6
:100A0000044AC1F3C221515CC84070471C00002059
:100A100000100240F61E00080E4A51680E4801F010
:100A20000C03042B11D0082B0FD10C48C1F38343C6
:100A3000C903C05C0AD55168084AC1F34041921EFF
:100A4000515C054A5043B0FBF1F0704704494843FC
:100A5000704700000010024000127A00D61E000805
:100A600000093D002DE9F84F040070D02078C04DFA
:100A7000C00749D06868C0F38100012807D06868C2
:100A8000C0F38100022809D16868C00306D5286830
:100A9000800339D560680028E7D035E06068B0F59C
:100AA000803F0BD010B1B0F5A02F11D0286820F4F2
:100AB00080302860286820F4802002E0286840F414
:100AC00080302860606890B1FFF75AFE06460AE061
:100AD000286840F480202860F0E700BFFFF750FE50
:100AE000801B642873D828688003F7D50CE0FFF7D3
:100AF00047FE064605E000BFFFF742FE801B642864
:100B0000F0D828688003F7D420789A4E80074FF0F9
:100B100001094FF0000839D5686810F00C0F07D0B4
:100B20006868C0F38100022809D16868C00306D450
:100B30002868800714D52069012808D110E02069B1
:100B4000B0B1C6F80090FFF71BFE074605E00AE1CA
:100B5000FFF716FEC01B0228C4D828688007F7D507
:100B60002868616920F0F80040EAC10028600DE0C3
:100B7000C6F80080FFF704FE074604E0FFF700FE1A
:100B8000C01B022823D828688007F7D420780007E4
:100B90002CD57948A169D9B1C0F80090FFF7F0FDD4
:100BA000074604E0FFF7ECFDC01B02280FD8686A77
:100BB0008007F7D571484FF4FA510068B0FBF1F0A7
:100BC000009000BF0098411E0091FAD20EE080E034
:100BD000C0F80080FFF7D4FD074604E0FFF7D0FD22
:100BE000C01B022875D8686A8007F7D420784007B0
:100BF00060D5E8690027C00008D4E86940F080505B
:100C0000E861E869012700F0805000905C480168C5
:100C1000C90513D40168834641F480710160FFF770
:100C2000AFFD824606E000BFFFF7AAFDA0EB0A0079
:100C300064284ED8DBF80000C005F5D5E06801282F
:100C40000AD008B1052813D0286A20F001002862D4
:100C5000286A20F0040002E0286A40F001002862BF
:100C6000E06841F2883B98B1FFF78AFD82460BE0CD
:100C7000286A40F004002862EEE700BFFFF780FD1D
:100C8000A0EB0A0159455AD8286A8007F6D50CE02E
:100C9000FFF776FD824605E0FFF772FDA0EB0A0143
:100CA00059454CD8286A8007F6D41FB1E86920F06E
:100CB0008050E861E06988B36968C1F38101022965
:100CC00044D00228C6F8608004D0FFF759FD0446DE
:100CD00038E034E0FFF754FD074604E0FFF750FD2D
:100CE000C01B02282BD828688001F7D4206AB0F5F1
:100CF000803F05D16868A16820F40030084368602F
:100D0000D4E908010843696821F474110843686054
:100D1000C6F86090FFF734FD044606E025E000BF0A
:100D2000FFF72EFD001B022809D828688001F7D59F
:100D30001BE000BFFFF724FD001B022802D903209F
:100D4000BDE8F88F28688001F4D40EE00128F7D0C0
:100D50006868226A00F48031914204D1616A00F42B
:100D60007010884201D00120EAE70020E8E7000087
:100D70000010024000004242800442421C00002059
:100D8000007000404FF0E0210428086903D020F0F3
:100D900004000861704740F00400FAE710B5401EF7
:100DA000B0F1807F01D3012010BD4FF0E0246061DD
:100DB0000F21601700F0A9FB0020A061072020612F
:100DC000002010BD7047704710F8411F407808435D
:100DD00070470000F8B5016804460868CA684B69A6
:100DE00010F00F0F4FF000055AD003F0010602F487
:100DF0009077374365D0C10705D0D10503D5616C25
:100E000041F001016164410705D5D90703D0616C48
:100E100041F002016164810705D5D90703D0616CF7
:100E200041F004016164010707D502F0200131435C
:100E300003D0616C41F008016164616C00293BD012
:100E4000800604D5900602D5204600F06EFA206890
:100E50004069616CC0F3801001F008010143204635
:100E60002BD000F03BFA20684069400621D520686D
:100E7000143050E8001F21F0400140E80012002A21
:100E8000F5D1E06BA8B16D494163E06BFFF7DEFA85
:100E9000002811D0E06B416B01B0BDE8F04008477D
:100EA00083060ED593060CD52046BDE8F84000F029
:100EB0003CBA2046FFF787FFF8BDFFF784FF656463
:100EC000F8BD266B2023012E7CD1C6067AD5D60626
:100ED00078D508684868009048694FF002064006D7
:100EE00040D5E16B086840680004000CE8D0A28D92
:100EF0008242E5D9E085886920282DD020680C3011
:100F000050E8001F21F4807140E80012002AF5D15A
:100F10002168143151E8000F20F0010041E800027F
:100F2000002AF5D12068143050E8001F21F040015C
:100F300040E80012002AF5D184F842302563206889
:100F40000C3050E8001F21F0100140E80012002A88
:100F5000F5D1E06BFFF756FA6663A08DE18D401A7C
:100F600081B22AE0A08DE18D401A81B2E08D002887
:100F7000A6D00029A4D022680C3252E8000F20F439
:100F8000907042E80007002FF5D12068143050E837
:100F9000002F22F0010240E80027002FF5D184F84D
:100FA0004230256320680C3050E8002F22F01002F8
:100FB00040E80023002BF5D166632046FFF702FFCF
:100FC000F8BDFFE705062BD5150629D594F8410095
:100FD0002128F5D1A068B0F5805F01D12069B0B1BA
:100FE000206A411C2162216800784860E08C401E24
:100FF0000004000CE084E3D12068C16821F0800186
:10100000C1602068C16841F04001C160D8E7206A32
:101010000088C0F308004860206A801C2062E5E771
:101020004006CDD55006CBD5CA68204622F04002F6
:10103000CA6084F8413000F0B5F8C1E7CD1200086D
:1010400070B5040004D094F84100002510B106E00A
:10105000012070BD84F84050204600F023F8242081
:1010600084F841002068C16821F40051C160204625
:1010700000F0BCF92068016921F490410161206809
:10108000416921F02A0141612068C16841F40051A1
:10109000C1606564202084F8410084F842006563E3
:1010A000002070BD10B500681E4986B0884236D158
:1010B0001D48816941F004018161816901F00401E9
:1010C0000491816941F480418161816901F4804129
:1010D0000491816941F0010181618069134C00F044
:1010E000010004904FF40070009002200190012054
:1010F00002900320039069462046FFF73FFA20152F
:1011000000900020019069462046FFF737FA25201D
:10111000FFF78CFB032211462520FFF795FB06B055
:1011200010BD0000003801400010024000080140DE
:1011300090F84230202B01D00220704721B11AB123
:101140000023036300F0AEB90120704730B500689A
:10115000114988420CD1114841880A0408D402463A
:101160004C0412784FF0000306D50A2A01D04380C0
:1011700030BD41F400410DE00D2A09D0C1F30D044A
:10118000074D491C89B22A554180C729EFD830BD87
:1011900041F48041418030BD00380140080000200A
:1011A000C80000207047FEE770B5214886B081690D
:1011B00041F020018161816901F020010491816980
:1011C00041F004018161816901F0040104918169A8
:1011D00041F004018161816901F004010491816998
:1011E00041F02001816180694FF4807400F020009B
:1011F00004900120CDE90040029003200D4D0390A2
:1012000069462846FFF7BAF904200B4E009069465C
:101210003046FFF7B3F9012221462846FFF7AAFA24
:10122000012204213046FFF7A5FA06B070BD000088
:10123000001002400008014000140140FEE7704722
:1012400010B5BF2080F31188BFF34F8FBFF36F8FAE
:1012500000F022FD18B104494FF0805008600020D2
:1012600080F3118810BD000004ED00E030B58FB0B0
:1012700028216846FFF724F814210AA8FFF720F870
:1012800001210804CDE900100024029402250491F4
:10129000CDE907504FF4E01009906846FFF7E2FBF4
:1012A00008B172B6FEE70F20CDE90A054FF4806061
:1012B000CDE90C4002210AA80E94FFF7F7FA0028A6
:1012C00001D072B6FEE70FB030BD704710B5406A6E
:1012D0000021C185C184FFF776FD10BD01680C3186
:1012E00051E8002F22F4907241E80023002BF5D141
:1012F0000168143151E8002F22F0010241E8002377
:10130000002BF5D1016B012909D101680C3151E89D
:10131000002F22F0100241E80023002BF5D12021FC
:1013200080F8421000210163704708B590F8421020
:10133000222901D0022008BD82684FF480539A42CE
:1013400001D1016921B1816A9A421BD04AB10AE0F8
:101350000268816A5268C2F308020A80816A891CA5
:1013600008E0026972B10268526802F07F020A70F6
:10137000816A491C8162C18D491E0904090CC1851D
:1013800003D01BE002685268F1E70168CA6822F0E6
:101390002002CA600168CA6822F48072CA600168CB
:1013A0004A6922F001024A61202180F8421000219E
:1013B0004163026B012A03D0FFF7C8FE002008BD7D
:1013C000016301680C3151E8002F22F0100241E85E
:1013D0000023002BF5D101680A68D20602D50A68FD
:1013E00049680091818DFFF7EDFCE7E770B5044691
:1013F00000680169E26821F44051114301612169EB
:10140000A0680843616908432168CA6841F20C6317
:101410009A430243CA6020684169A26921F440717D
:10142000114341611E492068884202D1FFF7E4FA66
:1014300001E0FFF7D1FA00EBC00101EB0012606898
:1014400064218000B2FBF0F3B3FBF1F36FF01806F8
:101450007343B2FBF0F5B2FBF0F605EB83053223E4
:1014600003EB0515B5FBF1F5B6FBF1F605F0F0055C
:1014700005EB0615B2FBF0F6B2FBF0F0B0FBF1F0B5
:101480006FF01802504306EB800003EB0010B0FB36
:10149000F1F0216800F00F002844886070BD000062
:1014A0000038014081628285C28500214164222189
:1014B00080F84210016921B10168CA6842F4807263
:1014C000CA6001684A6942F001024A610068C16865
:1014D00041F02001C16000207047000010B50848AD
:1014E000FFF778FC0648FFF76FFC2028FAD10122AD
:1014F00004490348FFF71CFE0028F8D110BD000086
:101500009001002008000020FEE70907090E0028CE
:1015100004DB00F1E02080F80014704700F00F00B9
:1015200000F1E02080F8141D7047704710B50446A4
:101530000420FFF727FC0148046010BD04000020D0
:1015400004490A685206FCD5024AC1B2121D116054
:1015500070470000003801401CB5FFF717F9FFF78E
:1015600085FEFFF721FE144912484FF4E13408606C
:101570000022C1E901420C20CA60C1E904208A614D
:101580000846CA61FFF75CFD08B172B6FEE7482065
:10159000FFF7CCFF204600F033FA08490220CDE9DE
:1015A00000010202002306A1074800F047FB00F0FB
:1015B000DBFAFEE700380140800000200000002038
:1015C0006D795461736B0000CD150008114D124EFA
:1015D0004FF480744FF4FA7710A0FEF765FE0022F6
:1015E00021462846FFF7C6F8012204213046FFF7BE
:1015F000C1F8384600F0A0FA012221462846FFF73C
:10160000B9F8002204213046FFF7B4F8384600F05C
:1016100093FAE1E7000801400014014068656C6C32
:101620006F20776F726C64210D0A00002DE9F04184
:101630001E4C0F460546E6682068001D00F0FCF9C8
:1016400038B9206890F82C10012088402169814326
:101650002161681C15D1A7B11549226848689060BE
:1016600023688268DA6022688368121D5A602268E3
:10167000121D8260206841610868401C0860BDE856
:10168000F08120683544B5424560216805D2E06BA1
:10169000BDE8F041091D00F0F0B9A06B091D00F094
:1016A000ECF9A06A8542EAD2A562E8E720000020B2
:1016B0008C0200202DE9F041054600F0F7F9364C88
:1016C000A068401CA0602068344F10B1606940B32E
:1016D0002DE02560A068012829D1002606EB8600B0
:1016E00007EB800000F0BBF9761C052EF6D32B48E3
:1016F000643000F0B4F92948783000F0B0F9274898
:101700008C3000F0ACF92548A03000F0A8F923484F
:10171000B43000F0A4F921486430A0631430E063D1
:1017200005E02068E96AC06A884200D82560606ADE
:101730000121401C6062E86A2269814011432161F5
:1017400000EB800007EB80004068A8608168E960DA
:101750008268291D51608160E86A00EB800007EB18
:101760008001696157F82010491C47F8201000F0EB
:10177000ABF9606900280CD02068E96AC06A884229
:1017800007D207494FF080500860BFF34F8FBFF377
:101790006F8FBDE8F081000020000020D8010020FC
:1017A00004ED00E010B50446006B00F097F9204608
:1017B000BDE8104000F092B90E484FF4884142074E
:1017C00006D0C01D0B4920F00700411AC1F5884121
:1017D000094A00230144C2E900030839143A21F000
:1017E000070111604B600B600B1AC0E90013936096
:1017F00053607047A002002074000020144E154C66
:10180000A6F1A0074FF08058DFF84C9012E000BF1F
:1018100000F04CF9F068C568281D00F00DF9A068CB
:10182000401EA0606068401E606000F04DF92846D0
:10183000FFF7B8FF60680028EAD138680128F9D9B5
:10184000C9F80080BFF34F8FBFF36F8FF2E700003E
:10185000780200202000002004ED00E02DE9F04790
:101860009946DDE9096480466FF00303206B03EBC2
:101870008202089D104420F0070761B10020231860
:101880000A5C83F834200A5C12B1401C1028F6D39D
:10189000002084F84300052D00D30425201DE562B7
:1018A00000F0E8F804F1180000F0E4F82461C5F154
:1018B00005006462A0614A464146384600F08EF851
:1018C0002060002E00D03460BDE8F08730B51149AB
:1018D00000E011460A688242FBD34B685C188442E0
:1018E00003D1406818444860084643681C18944275
:1018F00009D1084C143C2468A24209D052681A4409
:1019000042600A6812680260814200D0086030BDFF
:101910000460F9E7740000200548816B096821B173
:10192000816BC9680968816270474FF0FF31FAE73F
:1019300020000020BF2080F31188BFF34F8FBFF33A
:101940006F8FFEE770B50446002600F035F9224D92
:10195000286808B9FFF730FFCCB304F00700C0F1E6
:101960001000C1438C4232D8211800292FDD68684D
:1019700081422CD8184814300246146801E02046F1
:10198000144662688A4202D22268002AF7D12A6885
:1019900094421CD006682268026060680836421AC9
:1019A000102A04D9601842606160FFF78FFF6168F8
:1019B0006868401A6860AA68904200D2A86041F046
:1019C0000040606000202060E868401CE86000F093
:1019D000F5F9304670BD00006000002010B5031F0F
:1019E0004FF080741C601B1F21F001011960191F4A
:1019F000024B0B60143940380A6010BD35190008DD
:101A00000B4910B5094AC1E9002000208860C86070
:101A1000086188610C2048610846FFF711FBBDE8AA
:101A20001040012203490248FFF782BB0038014001
:101A30009001002008000020D0E9013201699A607D
:101A4000D0E901235A604A68824201D182684A6023
:101A5000002202610868401E08600868704700F1B3
:101A600008014FF0FF32C0E90112C160016100219D
:101A70000160704700210161704730B50B685A1C46
:101A800002D000F1080202E0026904E02246546834
:101A900025689D42FAD953684B6099608A6051600D
:101AA00008610168491C016030BD0000BF2080F35F
:101AB0001188BFF34F8FBFF36F8F02480168491C35
:101AC000016070477C00002003490868401E0860E0
:101AD00001D180F3118870477C00002070B5002888
:101AE0001BD0A0F108046068002816DA21680029DC
:101AF00013D120F00040606000F05EF8074D606890
:101B00006968084468602046FFF7E0FE2869401CC9
:101B10002861BDE8704000F051B970BD6000002040
:101B20004FF0E020002101618161024941610721FC
:101B3000016170473F19010010B5020009D000F0A3
:101B40003BF800211046FFF771FD00F037F900283F
:101B500007D104494FF080500860BFF34F8FBFF3A7
:101B60006F8F10BD04ED00E07CB50F480025CDE976
:101B700000502B4680220DA10E4800F05FF80A4C61
:101B80002C3C01280ED1BF2080F31188BFF34F8F6A
:101B9000BFF36F8F4FF0FF30A06201206061E560FE
:101BA00000F034F8206B7CBD4C00002049444C45CB
:101BB00000000000FD1700080248416B491C41630A
:101BC00070470000200000200E48416B11B1012138
:101BD000C16170470021C16101690B4AB1FA81F10D
:101BE000C1F11F0101EB810102EB810101F1080349
:101BF0004A6852684A609A4201D152684A60D16884
:101C00000160704720000020D8010020094810B56D
:101C1000016841F47F010160016841F07F4101608A
:101C2000FFF77EFF044900200860FEF7E1FA00207C
:101C300010BD000020ED00E07C0000202DE9FF5FDA
:101C40008346DDE90E87994616468A469000FFF7DF
:101C500079FE05001DD04C20FFF774FE040015D05E
:101C60004C21FEF72DFB25630021CDE90241CDE992
:101C700000874B46324651465846FFF7EFFD204657
:101C8000FFF718FD012004B0BDE8F09F2846FFF7DC
:101C900025FF4FF0FF30F6E72DE9F041454C0026D7
:101CA000606B28B1A069401CA0613046BDE8F0819E
:101CB000E5686D1CE56008D1A06BE16BA163E06392
:101CC000206A401C2062FFF727FEA16A3A488D4235
:101CD0000FD34FF0000EA16B096839B1A16BC96831
:101CE000C9684A68954212D2A26202E04FF0FF3101
:101CF000A1622168C96A01EB810150F82100012825
:101D000000D90126E0690028CFD00126CDE7D1E92E
:101D100002724B69BA60D1E902277A605F680A1DD6
:101D2000974201D1CF685F60C1F814E01F687F1E41
:101D30001F60D1F828C0BCF1000F15D0D1E90737DA
:101D40009F60D1E907377B60DCF8047001F118036C
:101D50009F4202D10B6ACCF80430C1F828E0DCF8CD
:101D600000305B1ECCF80030CB6A0127D4F810C0DD
:101D70009F4047EA0C07276103EB830300EB8303D3
:101D80005B688B609F68CF609F687A609A60CA6A60
:101D900002EB820200EB82034B6150F822305B1CA5
:101DA00040F82230C96A2268D26A914293D901264A
:101DB00091E7000020000020D80100202DE9F0412B
:101DC00000242746FFF772FE3F4D686B401E686394
:101DD000686B002872D1A8683C4B00264FF00108C0
:101DE000F0BB6BE0D868C468D4E90721A06A9160B1
:101DF000D4E907125160426804F118018A4201D106
:101E0000216A4160A6620168491E0160D4E902218D
:101E100060699160D4E9021251604268211D8A42D2
:101E200001D1E268426066610268521E0260E26AA5
:101E3000D5F810C008FA02F040EA0C00286102EB65
:101E40008200224A8C3A02EB80004068A060D0F801
:101E500008C0C4F80CC0D0F808C0CCF8041000E0EA
:101E600012E08160E06A00EB800002EB80016161BA
:101E700052F82010491C42F82010E06A2968C96A0B
:101E8000884201D3C5F81C8018680028AAD10CB17B
:101E9000FFF742FDAC693CB1FFF7FEFE08B1C5F8A3
:101EA0001C80641EF8D1AE61E86938B10849012789
:101EB00038070860BFF34F8FBFF36F8FFFF704FE43
:101EC0003846BDE8F08100002000002064020020B8
:101ED00004ED00E0010202030405060708090A0BED
:101EE0000C0D0E0F10100000000000000000010299
:101EF00003040607080900000000010203040000B3
:101F0000201F000800000020800000006C01000875
:101F1000A01F000880000020804C000088010008FD
:101F200000000000000000000000000000000000B1
:101F30000100000010000000000000000024F40078
:101F40000000000000000000000000000000000091
:101F50000000000000000000000000000000000081
:101F60000000000000000000000000000000000071
:101F7000040000000000000000000000000000005D
:101F80000000000000000000000000000000000051
:101F9000000000000000000000000000AAAAAAAA99
:0400000508000131BD
:00000001FF
